{
  "contractName": "RefundByLocation",
  "abi": [
    {
      "constant": true,
      "inputs": [],
      "name": "contract_info_count",
      "outputs": [
        {
          "internalType": "uint256",
          "name": "",
          "type": "uint256"
        }
      ],
      "payable": false,
      "stateMutability": "view",
      "type": "function"
    },
    {
      "constant": true,
      "inputs": [
        {
          "internalType": "uint256",
          "name": "",
          "type": "uint256"
        }
      ],
      "name": "contract_infos",
      "outputs": [
        {
          "internalType": "uint256",
          "name": "id",
          "type": "uint256"
        },
        {
          "internalType": "address",
          "name": "employee_address",
          "type": "address"
        },
        {
          "internalType": "address",
          "name": "employer_address",
          "type": "address"
        },
        {
          "internalType": "uint256",
          "name": "coord_long",
          "type": "uint256"
        },
        {
          "internalType": "uint256",
          "name": "lng_offset",
          "type": "uint256"
        },
        {
          "internalType": "uint256",
          "name": "coord_lat",
          "type": "uint256"
        },
        {
          "internalType": "uint256",
          "name": "lat_offset",
          "type": "uint256"
        },
        {
          "internalType": "uint256",
          "name": "radius",
          "type": "uint256"
        }
      ],
      "payable": false,
      "stateMutability": "view",
      "type": "function"
    },
    {
      "constant": true,
      "inputs": [
        {
          "internalType": "uint256",
          "name": "",
          "type": "uint256"
        }
      ],
      "name": "employee_location_infos",
      "outputs": [
        {
          "internalType": "address",
          "name": "employee_address",
          "type": "address"
        },
        {
          "internalType": "uint256",
          "name": "contract_id",
          "type": "uint256"
        },
        {
          "internalType": "uint256",
          "name": "coord_long",
          "type": "uint256"
        },
        {
          "internalType": "uint256",
          "name": "lng_offset",
          "type": "uint256"
        },
        {
          "internalType": "uint256",
          "name": "coord_lat",
          "type": "uint256"
        },
        {
          "internalType": "uint256",
          "name": "lat_offset",
          "type": "uint256"
        },
        {
          "internalType": "uint256",
          "name": "distance_from_contract_coord",
          "type": "uint256"
        },
        {
          "internalType": "string",
          "name": "timestamp",
          "type": "string"
        },
        {
          "internalType": "bool",
          "name": "status",
          "type": "bool"
        }
      ],
      "payable": false,
      "stateMutability": "view",
      "type": "function"
    },
    {
      "constant": true,
      "inputs": [],
      "name": "employee_location_infos_count",
      "outputs": [
        {
          "internalType": "uint256",
          "name": "",
          "type": "uint256"
        }
      ],
      "payable": false,
      "stateMutability": "view",
      "type": "function"
    },
    {
      "constant": true,
      "inputs": [],
      "name": "employeecount",
      "outputs": [
        {
          "internalType": "uint256",
          "name": "",
          "type": "uint256"
        }
      ],
      "payable": false,
      "stateMutability": "view",
      "type": "function"
    },
    {
      "constant": true,
      "inputs": [
        {
          "internalType": "uint256",
          "name": "",
          "type": "uint256"
        }
      ],
      "name": "employees",
      "outputs": [
        {
          "internalType": "string",
          "name": "name",
          "type": "string"
        },
        {
          "internalType": "address",
          "name": "employee_address",
          "type": "address"
        }
      ],
      "payable": false,
      "stateMutability": "view",
      "type": "function"
    },
    {
      "constant": true,
      "inputs": [],
      "name": "employercount",
      "outputs": [
        {
          "internalType": "uint256",
          "name": "",
          "type": "uint256"
        }
      ],
      "payable": false,
      "stateMutability": "view",
      "type": "function"
    },
    {
      "constant": true,
      "inputs": [
        {
          "internalType": "uint256",
          "name": "",
          "type": "uint256"
        }
      ],
      "name": "employers",
      "outputs": [
        {
          "internalType": "string",
          "name": "name",
          "type": "string"
        },
        {
          "internalType": "address",
          "name": "employer_address",
          "type": "address"
        }
      ],
      "payable": false,
      "stateMutability": "view",
      "type": "function"
    },
    {
      "constant": false,
      "inputs": [
        {
          "internalType": "string",
          "name": "_name",
          "type": "string"
        },
        {
          "internalType": "address",
          "name": "a",
          "type": "address"
        }
      ],
      "name": "init_employer",
      "outputs": [],
      "payable": false,
      "stateMutability": "nonpayable",
      "type": "function"
    },
    {
      "constant": false,
      "inputs": [
        {
          "internalType": "string",
          "name": "_name",
          "type": "string"
        },
        {
          "internalType": "address",
          "name": "a",
          "type": "address"
        }
      ],
      "name": "init_employee",
      "outputs": [],
      "payable": false,
      "stateMutability": "nonpayable",
      "type": "function"
    },
    {
      "constant": false,
      "inputs": [
        {
          "internalType": "uint256",
          "name": "contract_id",
          "type": "uint256"
        },
        {
          "internalType": "address",
          "name": "_employee_address",
          "type": "address"
        },
        {
          "internalType": "uint256[2]",
          "name": "_lat",
          "type": "uint256[2]"
        },
        {
          "internalType": "uint256[2]",
          "name": "_lng",
          "type": "uint256[2]"
        },
        {
          "internalType": "string",
          "name": "_timestamp",
          "type": "string"
        },
        {
          "internalType": "bool",
          "name": "_status",
          "type": "bool"
        },
        {
          "internalType": "uint256",
          "name": "_distance",
          "type": "uint256"
        }
      ],
      "name": "create_employee_location_info",
      "outputs": [
        {
          "internalType": "bool",
          "name": "",
          "type": "bool"
        }
      ],
      "payable": false,
      "stateMutability": "nonpayable",
      "type": "function"
    },
    {
      "constant": false,
      "inputs": [
        {
          "internalType": "address",
          "name": "_employer_address",
          "type": "address"
        },
        {
          "internalType": "address",
          "name": "_employee_address",
          "type": "address"
        },
        {
          "internalType": "uint256[2]",
          "name": "lat",
          "type": "uint256[2]"
        },
        {
          "internalType": "uint256[2]",
          "name": "lng",
          "type": "uint256[2]"
        },
        {
          "internalType": "uint256",
          "name": "radius",
          "type": "uint256"
        }
      ],
      "name": "create_contract",
      "outputs": [],
      "payable": false,
      "stateMutability": "nonpayable",
      "type": "function"
    }
  ],
  "bytecode": "0x608060405234801561001057600080fd5b50611965806100206000396000f3fe608060405234801561001057600080fd5b50600436106100b45760003560e01c8063a4297e7a11610071578063a4297e7a14610540578063abf9a3ac146106d6578063b69db351146107b1578063c461d4fa146107cf578063d670c3c2146107ed578063ec3d37f11461080b576100b4565b80630467635e146100b9578063066c4562146100d75780634739326b146101b15780634bb8b9f81461028b5780635b8c0bdb146103665780637718810514610475575b600080fd5b6100c16108fb565b6040518082815260200191505060405180910390f35b610103600480360360208110156100ed57600080fd5b8101908080359060200190929190505050610901565b60405180806020018373ffffffffffffffffffffffffffffffffffffffff1673ffffffffffffffffffffffffffffffffffffffff168152602001828103825284818151815260200191508051906020019080838360005b8381101561017557808201518184015260208101905061015a565b50505050905090810190601f1680156101a25780820380516001836020036101000a031916815260200191505b50935050505060405180910390f35b6101dd600480360360208110156101c757600080fd5b81019080803590602001909291905050506109ea565b60405180806020018373ffffffffffffffffffffffffffffffffffffffff1673ffffffffffffffffffffffffffffffffffffffff168152602001828103825284818151815260200191508051906020019080838360005b8381101561024f578082015181840152602081019050610234565b50505050905090810190601f16801561027c5780820380516001836020036101000a031916815260200191505b50935050505060405180910390f35b610364600480360360408110156102a157600080fd5b81019080803590602001906401000000008111156102be57600080fd5b8201836020820111156102d057600080fd5b803590602001918460018302840111640100000000831117156102f257600080fd5b91908080601f016020809104026020016040519081016040528093929190818152602001838380828437600081840152601f19601f820116905080830192505050505050509192919290803573ffffffffffffffffffffffffffffffffffffffff169060200190929190505050610ad3565b005b6103926004803603602081101561037c57600080fd5b8101908080359060200190929190505050610ba8565b604051808a73ffffffffffffffffffffffffffffffffffffffff1673ffffffffffffffffffffffffffffffffffffffff1681526020018981526020018881526020018781526020018681526020018581526020018481526020018060200183151515158152602001828103825284818151815260200191508051906020019080838360005b83811015610432578082015181840152602081019050610417565b50505050905090810190601f16801561045f5780820380516001836020036101000a031916815260200191505b509a505050505050505050505060405180910390f35b6104a16004803603602081101561048b57600080fd5b8101908080359060200190929190505050610cc8565b604051808981526020018873ffffffffffffffffffffffffffffffffffffffff1673ffffffffffffffffffffffffffffffffffffffff1681526020018773ffffffffffffffffffffffffffffffffffffffff1673ffffffffffffffffffffffffffffffffffffffff1681526020018681526020018581526020018481526020018381526020018281526020019850505050505050505060405180910390f35b6106bc600480360361012081101561055757600080fd5b8101908080359060200190929190803573ffffffffffffffffffffffffffffffffffffffff16906020019092919080604001906002806020026040519081016040528092919082600260200280828437600081840152601f19601f820116905080830192505050505050919291929080604001906002806020026040519081016040528092919082600260200280828437600081840152601f19601f82011690508083019250505050505091929192908035906020019064010000000081111561062057600080fd5b82018360208201111561063257600080fd5b8035906020019184600183028401116401000000008311171561065457600080fd5b91908080601f016020809104026020016040519081016040528093929190818152602001838380828437600081840152601f19601f82011690508083019250505050505050919291929080351515906020019092919080359060200190929190505050610d5d565b604051808215151515815260200191505060405180910390f35b6107af600480360360408110156106ec57600080fd5b810190808035906020019064010000000081111561070957600080fd5b82018360208201111561071b57600080fd5b8035906020019184600183028401116401000000008311171561073d57600080fd5b91908080601f016020809104026020016040519081016040528093929190818152602001838380828437600081840152601f19601f820116905080830192505050505050509192919290803573ffffffffffffffffffffffffffffffffffffffff1690602001909291905050506110e6565b005b6107b96111bb565b6040518082815260200191505060405180910390f35b6107d76111c1565b6040518082815260200191505060405180910390f35b6107f56111c7565b6040518082815260200191505060405180910390f35b6108f9600480360360e081101561082157600080fd5b81019080803573ffffffffffffffffffffffffffffffffffffffff169060200190929190803573ffffffffffffffffffffffffffffffffffffffff16906020019092919080604001906002806020026040519081016040528092919082600260200280828437600081840152601f19601f820116905080830192505050505050919291929080604001906002806020026040519081016040528092919082600260200280828437600081840152601f19601f8201169050808301925050505050509192919290803590602001909291905050506111cd565b005b60025481565b6001818154811061090e57fe5b9060005260206000209060020201600091509050806000018054600181600116156101000203166002900480601f0160208091040260200160405190810160405280929190818152602001828054600181600116156101000203166002900480156109ba5780601f1061098f576101008083540402835291602001916109ba565b820191906000526020600020905b81548152906001019060200180831161099d57829003601f168201915b5050505050908060010160009054906101000a900473ffffffffffffffffffffffffffffffffffffffff16905082565b600081815481106109f757fe5b9060005260206000209060020201600091509050806000018054600181600116156101000203166002900480601f016020809104026020016040519081016040528092919081815260200182805460018160011615610100020316600290048015610aa35780601f10610a7857610100808354040283529160200191610aa3565b820191906000526020600020905b815481529060010190602001808311610a8657829003601f168201915b5050505050908060010160009054906101000a900473ffffffffffffffffffffffffffffffffffffffff16905082565b600060405180604001604052808481526020018373ffffffffffffffffffffffffffffffffffffffff16815250908060018154018082558091505090600182039060005260206000209060020201600090919290919091506000820151816000019080519060200190610b4792919061182b565b5060208201518160010160006101000a81548173ffffffffffffffffffffffffffffffffffffffff021916908373ffffffffffffffffffffffffffffffffffffffff1602179055505050506003600081548092919060010191905055505050565b60068181548110610bb557fe5b90600052602060002090600902016000915090508060000160009054906101000a900473ffffffffffffffffffffffffffffffffffffffff1690806001015490806002015490806003015490806004015490806005015490806006015490806007018054600181600116156101000203166002900480601f016020809104026020016040519081016040528092919081815260200182805460018160011615610100020316600290048015610cab5780601f10610c8057610100808354040283529160200191610cab565b820191906000526020600020905b815481529060010190602001808311610c8e57829003601f168201915b5050505050908060080160009054906101000a900460ff16905089565b60048181548110610cd557fe5b90600052602060002090600802016000915090508060000154908060010160009054906101000a900473ffffffffffffffffffffffffffffffffffffffff16908060020160009054906101000a900473ffffffffffffffffffffffffffffffffffffffff16908060030154908060040154908060050154908060060154908060070154905088565b6000610d676118ab565b600080905060008090505b600354811015610f24578973ffffffffffffffffffffffffffffffffffffffff1660008281548110610da057fe5b906000526020600020906002020160010160009054906101000a900473ffffffffffffffffffffffffffffffffffffffff1673ffffffffffffffffffffffffffffffffffffffff161415610f175760008181548110610dfb57fe5b9060005260206000209060020201604051806040016040529081600082018054600181600116156101000203166002900480601f016020809104026020016040519081016040528092919081815260200182805460018160011615610100020316600290048015610ead5780601f10610e8257610100808354040283529160200191610ead565b820191906000526020600020905b815481529060010190602001808311610e9057829003601f168201915b505050505081526020016001820160009054906101000a900473ffffffffffffffffffffffffffffffffffffffff1673ffffffffffffffffffffffffffffffffffffffff1673ffffffffffffffffffffffffffffffffffffffff1681525050925060019150610f24565b8080600101915050610d72565b5080610f35576000925050506110db565b60066040518061012001604052808b73ffffffffffffffffffffffffffffffffffffffff1681526020018c815260200189600060028110610f7257fe5b6020020151815260200189600160028110610f8957fe5b602002015181526020018a600060028110610fa057fe5b602002015181526020018a600160028110610fb757fe5b602002015181526020018681526020018881526020018715158152509080600181540180825580915050906001820390600052602060002090600902016000909192909190915060008201518160000160006101000a81548173ffffffffffffffffffffffffffffffffffffffff021916908373ffffffffffffffffffffffffffffffffffffffff1602179055506020820151816001015560408201518160020155606082015181600301556080820151816004015560a0820151816005015560c0820151816006015560e082015181600701908051906020019061109d92919061182b565b506101008201518160080160006101000a81548160ff0219169083151502179055505050506007600081548092919060010191905055506001925050505b979650505050505050565b600160405180604001604052808481526020018373ffffffffffffffffffffffffffffffffffffffff1681525090806001815401808255809150509060018203906000526020600020906002020160009091929091909150600082015181600001908051906020019061115a92919061182b565b5060208201518160010160006101000a81548173ffffffffffffffffffffffffffffffffffffffff021916908373ffffffffffffffffffffffffffffffffffffffff1602179055505050506002600081548092919060010191905055505050565b60055481565b60075481565b60035481565b6111d56118db565b600080905060008090505b600254811015611392578773ffffffffffffffffffffffffffffffffffffffff166001828154811061120e57fe5b906000526020600020906002020160010160009054906101000a900473ffffffffffffffffffffffffffffffffffffffff1673ffffffffffffffffffffffffffffffffffffffff161415611385576001818154811061126957fe5b9060005260206000209060020201604051806040016040529081600082018054600181600116156101000203166002900480601f01602080910402602001604051908101604052809291908181526020018280546001816001161561010002031660029004801561131b5780601f106112f05761010080835404028352916020019161131b565b820191906000526020600020905b8154815290600101906020018083116112fe57829003601f168201915b505050505081526020016001820160009054906101000a900473ffffffffffffffffffffffffffffffffffffffff1673ffffffffffffffffffffffffffffffffffffffff1673ffffffffffffffffffffffffffffffffffffffff1681525050925060019150611392565b80806001019150506111e0565b5061139b6118ab565b600080905060008090505b600354811015611558578873ffffffffffffffffffffffffffffffffffffffff16600082815481106113d457fe5b906000526020600020906002020160010160009054906101000a900473ffffffffffffffffffffffffffffffffffffffff1673ffffffffffffffffffffffffffffffffffffffff16141561154b576000818154811061142f57fe5b9060005260206000209060020201604051806040016040529081600082018054600181600116156101000203166002900480601f0160208091040260200160405190810160405280929190818152602001828054600181600116156101000203166002900480156114e15780601f106114b6576101008083540402835291602001916114e1565b820191906000526020600020905b8154815290600101906020018083116114c457829003601f168201915b505050505081526020016001820160009054906101000a900473ffffffffffffffffffffffffffffffffffffffff1673ffffffffffffffffffffffffffffffffffffffff1673ffffffffffffffffffffffffffffffffffffffff1681525050925060019150611558565b80806001019150506113a6565b50806116685760405180604001604052806040518060400160405280600981526020017f796f7572206e616d65000000000000000000000000000000000000000000000081525081526020018973ffffffffffffffffffffffffffffffffffffffff16815250915060008290806001815401808255809150509060018203906000526020600020906002020160009091929091909150600082015181600001908051906020019061160a92919061182b565b5060208201518160010160006101000a81548173ffffffffffffffffffffffffffffffffffffffff021916908373ffffffffffffffffffffffffffffffffffffffff1602179055505050506003600081548092919060010191905055505b600460405180610100016040528060055481526020018a73ffffffffffffffffffffffffffffffffffffffff1681526020018b73ffffffffffffffffffffffffffffffffffffffff168152602001886000600281106116c357fe5b60200201518152602001886001600281106116da57fe5b60200201518152602001896000600281106116f157fe5b602002015181526020018960016002811061170857fe5b6020020151815260200187815250908060018154018082558091505090600182039060005260206000209060080201600090919290919091506000820151816000015560208201518160010160006101000a81548173ffffffffffffffffffffffffffffffffffffffff021916908373ffffffffffffffffffffffffffffffffffffffff16021790555060408201518160020160006101000a81548173ffffffffffffffffffffffffffffffffffffffff021916908373ffffffffffffffffffffffffffffffffffffffff160217905550606082015181600301556080820151816004015560a0820151816005015560c0820151816006015560e08201518160070155505050600560008154809291906001019190505550505050505050505050565b828054600181600116156101000203166002900490600052602060002090601f016020900481019282601f1061186c57805160ff191683800117855561189a565b8280016001018555821561189a579182015b8281111561189957825182559160200191906001019061187e565b5b5090506118a7919061190b565b5090565b604051806040016040528060608152602001600073ffffffffffffffffffffffffffffffffffffffff1681525090565b604051806040016040528060608152602001600073ffffffffffffffffffffffffffffffffffffffff1681525090565b61192d91905b80821115611929576000816000905550600101611911565b5090565b9056fea265627a7a723158207be161c17779c9d31916de8a8762e54567b4bd135f7bd37179fa78eb152bb43d64736f6c63430005100032",
  "source": "pragma solidity >=0.4.22 <0.9.0;\n// pragma experimental ABIEncoderV2;\n\ncontract RefundByLocation{\n    struct Employee{\n        // uint id;\n        string name;\n        address employee_address;\n    }\n    struct Employer{\n        // uint id;\n        string name;\n        address employer_address;\n    }\n\n    struct Employee_Location_info{\n        address employee_address;\n        uint contract_id;\n        uint coord_long;\n        uint lng_offset;\n        uint coord_lat;\n        uint lat_offset;\n        uint distance_from_contract_coord;\n        string timestamp;\n        bool status;\n    }\n\n    struct single_contract_info{\n        uint id;\n        address employee_address;\n        address employer_address;\n        uint coord_long;\n        uint lng_offset;\n        uint coord_lat;\n        uint lat_offset;\n        uint radius;\n    }\n    \n    Employee[] public employees;\n    Employer[] public employers;\n    uint public employercount;\n    uint public employeecount;\n\n    single_contract_info[] public contract_infos;\n    uint public contract_info_count;\n\n    Employee_Location_info[] public employee_location_infos;\n    uint public employee_location_infos_count;\n\n    \n\n    function init_employer(string memory _name, address a) public{\n        employers.push(Employer(_name,a));\n        employercount ++;\n    }\n\n    function init_employee(string memory _name, address a) public{\n        employees.push(Employee(_name, a));\n        employeecount++;\n    }\n\n    function create_employee_location_info(uint contract_id, address _employee_address, \n            uint[2] memory _lat, uint[2] memory _lng,\n            string memory _timestamp, bool _status, uint _distance\n        ) public returns(bool){\n        // single_contract_info memory contract_info = contract_infos[contract_id[0]];\n        // if(contract_info.id > 0){\n        Employee memory emplee;\n        bool is_employee = false;\n        for(uint j=0;j<employeecount;j++){\n            if(employees[j].employee_address == _employee_address){\n                emplee = employees[j];\n                is_employee = true;\n                break;\n            }\n        }\n        if(!is_employee){\n            return false;\n        }\n        else{\n            employee_location_infos.push(\n                Employee_Location_info(\n                    _employee_address,\n                    contract_id,\n                    _lng[0],\n                    _lng[1],\n                    _lat[0],\n                    _lat[1],\n                    _distance,\n                    _timestamp,\n                    _status\n                )\n            );\n            employee_location_infos_count++;\n        }\n        // }\n        // else{\n        //     return false;\n        // }\n        return true;\n    }\n\n    function create_contract(address _employer_address, address _employee_address, uint[2] memory lat, uint[2] memory lng, uint radius) public{\n        Employer memory emplr;\n        bool is_employer = false;\n        for(uint i=0;i<employercount;i++){\n            if (employers[i].employer_address == _employer_address){\n                emplr = employers[i];\n                is_employer = true;\n                break;\n            }\n        }\n        if(!is_employer){\n            // return false;\n        }\n        Employee memory emplee;\n        bool is_employee = false;\n        for(uint j=0;j<employeecount;j++){\n            if(employees[j].employee_address == _employee_address){\n                emplee = employees[j];\n                is_employee = true;\n                break;\n            }\n        }\n        if(!is_employee){\n            emplee = Employee(\"your name\", _employee_address);\n            employees.push(emplee);\n            employeecount++;\n\n        }\n        contract_infos.push(\n            single_contract_info(\n                contract_info_count,\n                _employee_address,\n                _employer_address,\n                lng[0],\n                lng[1],\n                lat[0],\n                lat[1],\n                radius\n            )\n        );\n        contract_info_count++;\n        \n        // return true;\n    }\n}",
  "sourcePath": "/home/n/Documents/10_Academy/Refund by Location/refund_contract/contracts/RefundByLocation.sol",
  "compiler": {
    "name": "solc",
    "version": "0.5.16+commit.9c3226ce.Emscripten.clang"
  },
  "schemaVersion": "3.4.10",
  "updatedAt": "2022-10-30T05:26:21.522Z",
  "networkType": "ethereum",
  "devdoc": {
    "methods": {}
  },
  "userdoc": {
    "methods": {}
  }
}